:020000040800F2
:1000000000100020B903000811560208F903000887
:100010001D040008F80300080B040008B3030008DF
:10002000B3030008B3030008B303000809C80008BD
:10003000B3030008B3030008B3030008D1D60008D7
:10004000B3030008B3030008CDD500083DD600086F
:10005000B3030008B303000801D8030809D8030854
:1000600011D8030819D8030821D80308B5CB000814
:10007000E5CB000819CC00084DCC000881CC000865
:10008000B1CC0008E5CC000885C80008D5CA000836
:10009000F1CA00080DCB000829CB000829D80308B5
:1000A000B303000839D80008B303000855D8000886
:1000B000ADD7000859D8000875D8000841CC03080E
:1000C000B3030008E5CE000815D00008B30300080C
:1000D000B3030008B3030008B3030008B303000828
:1000E0004DD803087DD60008B3030008B303000809
:1000F000ADD80008B3030008C9D8000819CD00081E
:10010000B3030008B303000891D80008B303000844
:10011000B3030008B303000855D70008B303000871
:100120004DCD00087DCD0008B1CD0008E5CD00081B
:1001300019CE0008B3030008B303000845CB00083C
:1001400061CB00087DCB000899CB000825D10008C1
:1001500049CE00087DCE0008B1CE0008CDD80008F9
:10016000B3030008B3030008B3030008B303000897
:10017000B3030008B3030008B3030008B303000887
:10018000B3030008B3030008B3030008B303000877
:10019000B3030008B3030008B3030008B303000867
:1001A000B3030008B3030008B3030008B303000857
:1001B000B3030008B3030008B3030008B303000847
:1001C000B3030008B3030008B3030008B303000837
:1001D000B3030008B3030008B3030008B303000827
:0801E00079590008E17B0608D3
:1001F00001F0FF01102A2BDB10F0070F08D010F8D8
:10020000013B013A8B422DD010F0070F42B3F6D1DB
:10021000F0B441EA012141EA014122F007047FF0F4
:1002200000070023F0E80256083C85EA010586EA4B
:10023000010685FA47F5A3FA87F586FA47F6A5FA87
:1002400087F68EB9EED1F0BC01F0FF0102F0070293
:1002500032B110F8013B013A83EA010313B1F8D13E
:100260000020704701387047002D06BF354603381F
:10027000073815F0010F07D1013015F4807F02BF58
:10028000013015F4C03F0130F0BC0138704700BFA9
:1002900072B6394880F30888384880F309883848AE
:1002A0004EF60851CEF20001086040F20000CCF298
:1002B00000004EF63471CEF200010860BFF34F8F9C
:1002C000BFF36F8F40F20000C0F2F0004EF688518D
:1002D000CEF200010860BFF34F8FBFF36F8F4FF076
:1002E0000000E1EE100A4EF63C71CEF2000108600B
:1002F000062080F31488BFF36F8F08F0A1FD25F06E
:1003000065F84FF055301F491B4A91423CBF41F8F8
:10031000040BFAE71C49194A91423CBF41F8040B0F
:10032000FAE71A491A4A1B4B9A423EBF51F8040B8E
:1003300042F8040BF8E700201749184A91423CBFE5
:1003400041F8040BFAE708F07FFD3CF089FF144CFC
:10035000144DAC4203DA54F8041B8847F9E703F064
:10036000A7FF114C114DAC4203DA54F8041B884727
:10037000F9E708F067BD000000100020001600201B
:10038000000000080000002000100020CC920808A7
:1003900000160020B8190020B819002074B30120FD
:1003A000E0010008E4010008E4010008E801000899
:1003B0006EE700F000F8FEE70A480B4902680060AB
:1003C0008A4201D0FFF764FF08484FF48041016082
:1003D00007484FF0010101600648D0F800D040689E
:1003E00000470000F0FF0120EFBEADDE44380240C0
:1003F000003801400000FF1F1EF0040F0CBFEFF398
:100400000880EFF3098025F007B91EF0040F0CBF38
:10041000EFF30880EFF3098025F040B91EF0040FD8
:100420000CBFEFF30880EFF3098025F07DB900BF22
:10043000EC46A0E8F05F80EC108B4FF000007047B6
:10044000B0E8F05FE54690EC108B080008BF012093
:10045000704700BF00F1340191E838009C46A64681
:100460004CF8045D90E8FF0FE54600BD90EC210BD1
:10047000704700BF80EC210B704700BF90EC200B51
:10048000704700BF80EC200B704700BFD0EC200B02
:10049000704700BFC0EC200B704700BFF0EC0201BA
:1004A000F0EC0211F0EC0221F0EC0231F0EC024130
:1004B000F0EC0251F0EC0261F0EC0271F0EC028120
:1004C000F0EC0291F0EC02A1F0EC02B1F0EC02C110
:1004D000F0EC02D1F0EC02E1F0EC02F1704700BF69
:1004E000E0EC0201E0EC0211E0EC0221E0EC023170
:1004F000E0EC0241E0EC0251E0EC0261E0EC027160
:10050000E0EC0281E0EC0291E0EC02A1E0EC02B14F
:10051000E0EC02C1E0EC02D1E0EC02E1E0EC02F13F
:10052000704700BFB0FC0181B0FC0191B0FC01A19B
:10053000B0FC01B1704700BFA0FC0181A0FC01919B
:10054000A0FC01A1A0FC01B1704700BFEC4600B5C2
:100550002DE900502DE9FF1F4FF000032DE90C009D
:1005600001A96BF0D9FDDDF840E012B0704700BF83
:10057000EC4600B52DE900502DE9FF1F4FF00003B8
:100580002DE90C0001A96BF003FEDDF840E012B08C
:10059000704700BFEC4600B52DE900502DE9FF1F64
:1005A0004FF000032DE90C0001A96BF011FEDDF8FE
:1005B00040E012B0704700BFEC4600B52DE9005096
:1005C0002DE9FF1F4FF000032DE90C0001AB6BF08C
:1005D000D7FDDDF840E012B0704700BFEC4600B533
:1005E0002DE900502DE9FF1F4FF000032DE90C000D
:1005F00001AA6BF041FEDDF840E012B0704700BF89
:1006000081F0004102E000BF83F0004330B54FEAC3
:1006100041044FEA430594EA050F08BF90EA020F30
:100620001FBF54EA000C55EA020C7FEA645C7FEAC3
:10063000655C00F0E2804FEA5454D4EB5555B8BFE6
:100640006D420CDD2C4480EA020281EA030382EA57
:10065000000083EA010180EA020281EA0303362DE9
:1006600088BF30BD11F0004F4FEA01314FF4801CBC
:100670004CEA113102D0404261EB410113F0004FCE
:100680004FEA03334CEA133302D0524263EB430385
:1006900094EA050F00F0A780A4F10104D5F1200E23
:1006A0000DDB02FA0EFC22FA05F2801841F100017E
:1006B00003FA0EF2801843FA05F359410EE0A5F152
:1006C00020050EF1200E012A03FA0EFC28BF4CF083
:1006D000020C43FA05F3C01851EBE37101F0004539
:1006E00007D54FF0000EDCF1000C7EEB00006EEB46
:1006F0000101B1F5801F1BD3B1F5001F0CD34908D0
:100700005FEA30004FEA3C0C04F101044FEA445226
:1007100012F5800F80F09A80BCF1004F08BF5FEAAD
:10072000500C50F1000041EB045141EA050130BD8D
:100730005FEA4C0C404141EB0101013C28BFB1F59F
:10074000801FE9D291F0000F04BF01460020B1FAEA
:1007500081F308BF2033A3F10B03B3F120020CDABD
:100760000C3208DD02F1140CC2F10C0201FA0CF09B
:1007700021FA02F10CE002F11402D8BFC2F1200C00
:1007800001FA02F120FA0CFCDCBF41EA0C019040B6
:10079000E41AA2BF01EB0451294330BD6FEA0404FF
:1007A0001F3C1CDA0C340EDC04F11404C4F12002EA
:1007B00020FA04F001FA02F340EA030021FA04F3FC
:1007C00045EA030130BDC4F10C04C4F1200220FA53
:1007D00002F001FA04F340EA0300294630BD21FA91
:1007E00004F0294630BD94F0000F83F4801306BF57
:1007F00081F480110134013D4EE77FEA645C18BF4B
:100800007FEA655C29D094EA050F08BF90EA020FE1
:1008100005D054EA000C04BF1946104630BD91EAD9
:10082000030F1EBF0021002030BD5FEA545C05D1DC
:100830004000494128BF41F0004130BD14F580041B
:100840003CBF01F5801130BD01F0004545F0FE418F
:1008500041F470014FF0000030BD7FEA645C1ABFC4
:10086000194610467FEA655C1CBF0B46024650EAFB
:10087000013406BF52EA033591EA030F41F4002127
:1008800030BD00BF90F0000F04BF0021704730B5AD
:100890004FF4806404F132044FF000054FF0000182
:1008A00050E700BF90F0000F04BF0021704730B543
:1008B0004FF4806404F1320410F0004548BF404218
:1008C0004FF000013EE700BF42004FEAE2014FEA6D
:1008D00031014FEA02701FBF12F07F4393F07F4F48
:1008E00081F06051704732F07F4208BF704793F04B
:1008F0007F4F04BF41F40021704730B54FF460745E
:1009000001F0004521F000411CE700BF50EA010260
:1009100008BF704730B54FF000050AE050EA010209
:1009200008BF704730B511F0004502D5404261EB79
:1009300041014FF4806404F132045FEA915C3FF4BA
:10094000D8AE4FF003025FEADC0C18BF03325FEA57
:10095000DC0C18BF033202EBDC02C2F1200300FA08
:1009600003FC20FA02F001FA03FE40EA0E0021FA2D
:1009700002F11444BDE600BF4FEA4102B2F1E04388
:1009800024BFB3F5001CDCF1FE5C0DD901F0004C76
:100990004FEAC0024CEA5070B2F1004F40EB8300C6
:1009A00008BF20F00100704711F0804F21D113F1F2
:1009B0003872BCBF01F00040704741F480114FEA2B
:1009C0005252C2F11802C2F1200C10FA0CF320FAB4
:1009D00002F018BF40F001004FEAC1234FEAD323D1
:1009E00003FA0CFC40EA0C0023FA02F34FEA43033B
:1009F000CCE77FEA625307D150EA01331EBF4FF0C4
:100A0000FE4040F44000704701F0004040F0FE40DE
:100A100040F40000704700BF80F0004002E000BFDB
:100A200081F0004142001FBF5FEA410392EA030FD9
:100A30007FEA226C7FEA236C6AD04FEA1262D2EB23
:100A40001363C1BFD218414048404140B8BF5B4228
:100A5000192B88BF704710F0004F40F4000020F0C1
:100A60007F4018BF404211F0004F41F4000121F0D7
:100A70007F4118BF494292EA030F3FD0A2F1010221
:100A800041FA03FC10EB0C00C3F1200301FA03F15F
:100A900000F0004302D5494260EB4000B0F5000F82
:100AA00013D3B0F1807F06D340084FEA310102F141
:100AB0000102FE2A51D2B1F1004F40EBC25008BFF3
:100AC00020F0010040EA03007047490040EB0000BD
:100AD000013A28BFB0F5000FEDD2B0FA80FCACF1BE
:100AE000080CB2EB0C0200FA0CF0AABF00EBC250EB
:100AF00052421843BCBFD0401843704792F0000FD9
:100B000081F4000106BF80F400000132013BB5E72B
:100B10004FEA41037FEA226C18BF7FEA236C21D0A1
:100B200092EA030F04D092F0000F08BF0846704706
:100B300090EA010F1CBF0020704712F07F4F04D1D4
:100B4000400028BF40F00040704712F100723CBFE7
:100B500000F50000704700F0004343F0FE4040F411
:100B6000000070477FEA226216BF08467FEA2363CF
:100B70000146420206BF5FEA412390EA010F40F4BA
:100B8000800070474FF0000304E000BF10F0004306
:100B900048BF40425FEA000C08BF704743F09643ED
:100BA00001464FF000001CE050EA010208BF704708
:100BB0004FF000030AE000BF50EA010208BF70478F
:100BC00011F0004302D5404261EB41015FEA010CA4
:100BD00002BF84460146002043F0B64308BFA3F19C
:100BE0008053A3F50003BCFA8CF2083AA3EBC2537E
:100BF00010DB01FA02FC634400FA02FCC2F120029D
:100C0000BCF1004F20FA02F243EB020008BF20F0D3
:100C10000100704702F1200201FA02FCC2F1200239
:100C200050EA4C0021FA02F243EB020008BF20EA2E
:100C3000DC7070477BB972B90029BEBF00204FF04D
:100C4000004106E008BF00281CBF6FF000414FF0D4
:100C5000FF3000F057B8ADF1080C6DE904CE002963
:100C600009DB002B1ADB6BF07BFFDDF804E0DDE92C
:100C7000022304B07047404261EB4101002B1BDBB3
:100C80006BF06EFFDDF804E0DDE9022304B04042C2
:100C900061EB4101524263EB43037047524263EB05
:100CA00043036BF05DFFDDF804E0DDE9022304B0EF
:100CB000404261EB41017047524263EB43036BF0EA
:100CC0004FFFDDF804E0DDE9022304B0524263EB9C
:100CD0004303704753B94AB9002908BF00281CBF15
:100CE0004FF0FF314FF0FF3000F00CB8ADF1080CC1
:100CF0006DE904CE6BF034FFDDF804E0DDE902239A
:100D000004B07047704700BF2DE9F04F2DED108AF9
:100D1000C1F80CD0C3689D46BDEC108ABDE8F08FC9
:100D200008F0D4F9002383F311882846A047002057
:100D300009F04CFDFEE708F059FB09F0C5FC08F08E
:100D4000C5F900DFFEE710F8012B11F8013B012A7D
:100D500028BF9A42F7D0D01A7047034613F8012BE8
:100D6000002AFBD1181A013870470000000000006B
:100D700070B586B00C4611461A46114B00930546D5
:100D800074B1631ECDE9010300266846CDE9036610
:100D90000CF086FE039BA34200D2EE5406B070BD59
:100DA0009FED057B019068468DED027B04940CF06D
:100DB00077FE06B070BD00BF00000000000000001C
:100DC000DCDA06080000000070B5C66984B004468D
:100DD00030460D4614F082FA204613F071FF20468B
:100DE00013F0BCFF9FED087B0346294630460724DD
:100DF0006A468DED027B8DF80040019314F0FAFAFB
:100E000004B070BDAFF30080FFFFFFFFFFFFFFFFE7
:100E10002DE9F04FC768C669D0F804802DED028B2C
:100E2000282F87B004460D4672D040F223139F420C
:100E300040F0858014F006FD9FED438B4FF0070ACC
:100E40004FF00809E3683A2B14D008DD5B2B51D032
:100E50005A2B40DC07B0BDEC028BBDE8F08F282B8D
:100E60003ED02E2BF6D129462046FFF7ADFFE36892
:100E70003A2BEAD1204613F023FF204613F06EFFF1
:100E80002946039030468DED048B8DF808A014F0B0
:100E900003FA2B78D5F804B0082B4BD096F83470B1
:100EA0006F600221304685F8009012F09FFFBA1C57
:100EB00002A986F834205B4600913A461421304658
:100EC00014F026FA9DF80830082B0DD1039930460E
:100ED00066F0ECFC08E07B2B02D0B3F5927FB9D131
:100EE0002946304614F0BAF942462946204616F003
:100EF0002DF8A7E72946304614F0F0F902A920465C
:100F000015F0CAFE02AA2946304614F073FA99E792
:100F100013F0D6FE29460022204615F0F1F92046AE
:100F200043463A46292113F0EFFEE069294613F0C3
:100F3000A5FF81E75946304666F0B8FCAEE70449A4
:100F400012F0ECFEAFF30080FFFFFFFFFFFFFFFF9B
:100F5000E0E80608000000000D4B9FED0B7B03F559
:100F6000EB6C03F2647100220020CCF800200A60D0
:100F700003F5EE6202ED027BC3F85407C3F8600785
:100F8000C3F87007704700BF0000000000000000B9
:100F9000000000100000000030B5012285B00C21D7
:100FA000044612F07BF8E0B19FED117B0246124B34
:100FB000043280ED017B02600FCB6D4685E80F00A7
:100FC0000E4B0F491A6820460FF010FB00222946ED
:100FD00020461BF01BFA204662F0A8F8012005B05D
:100FE00030BD20460FF0B0FA012005B030BD00BF83
:100FF00000000000000000F08CD30608D09C002008
:10100000D8B9F0FF000000002DE9F04F2DED048B62
:10101000036895B0DB689847002800F02C850368CA
:101020009D4ADB689342834640F021850BF10D0316
:1010300005939A4BDFED9A9A98699FED9A9A3CF046
:1010400029F80BF10C057F289FED918BA94640F301
:10105000E580DBF8003058461B69984704460028B5
:1010600000F06B85904A136A01331362DBF800309D
:1010700001225D680DF122014FF47A735846A847AA
:10108000012840F085839DF82230542B0ED8452B43
:101090000FD9463B0E2B0CD8DFE803F0D30B0B0B1C
:1010A0000B0B0B0B0B0B0BC70BC7CF00742B00F0FC
:1010B000C480DBF8003001225D680DF123010A23B2
:1010C0005846A847012840F026859DF822309DF813
:1010D000235045EA03252E469BF830342DB206F105
:1010E0000408002E00F0518340F21E41884500F3B1
:1010F0004C83DBF800104F68002B00F023834FF483
:101100007A73424649465846B84780459BF80C706A
:1011100040F0F58538463AF0A1FB8046002800F003
:10112000418659F805302A46002148461DBA5DF02F
:1011300021F8854240F042830123022E9BF80CA047
:101140008BF8303440F31B83042EBBF80D5040F372
:101150001983BBF80F80AAF138023C2A3ED8DFE899
:1011600012F0D7028B023D003D003D003D003D00E6
:101170003D003D0083025B0271013D0048013D00DE
:10118000F7003D003D003D003D00EC003D003D000E
:10119000C0013D003D009D0192016C003D007901C0
:1011A00027023D003D00CB013D003D003D003D00DC
:1011B0003D003D003D003D003D003D00E1003D00A3
:1011C0003D003D003D003D00B90084003D003D0074
:1011D0003D003D003D003D003D006C008321584630
:1011E0005FF096F950213148314ACDF800A05346BE
:1011F0000CF0C0FE2D49DBF82C0465F051FB2D48A6
:101200003A4639463CF07AFE00242B4B1C70234BA7
:1012100098693BF03FFF7F283FF71BAF274A2849DB
:1012200041F6F4204DF0FAFFEEE726483CF066FE6A
:10123000002158465FF04EF9E7E758463AF02AFB9E
:10124000E3E7214ADBF82C1420483CF057FEDBF89A
:1012500000301F491D68584600230322A847DBF8C9
:10126000003058469B689847CFE79BF80D30022B1B
:1012700000F00684032B00F02684012BBFD15BF025
:101280001FF858463AF0DEFABFE700BFAFF3008020
:1012900025F4DECE0000000011C601083C8E0020BF
:1012A00000007A440024744944A50020401A01201B
:1012B00064470708904707083CB30120A04307088C
:1012C000741C0708B0430708D043070830210708FB
:1012D000E0430708BA4A93690133936141465A468D
:1012E00028463CF055FE0646002840F06C83014637
:1012F0004022B4486BF0AFFDB34842463146284423
:101300005CF038FF00BA0C900CAA584600960423F3
:1013100001213AF007FA0C9BAC48424629463CF0C2
:10132000EDFD72E7AA48FFF718FD01210346A84A20
:10133000009158463AF0F6F967E7002300938DF8DC
:10134000303001230CAA194658463AF0EBF95CE715
:101350009B4AA04D536AA04E01335362AA6AD6F845
:101360003C359A4280F05E823CF0DCF9D5E90C32E3
:1013700053EA020540F03B82984D2B68032B00F0A6
:1013800062829748B0EE490A41F008FE002840F01A
:101390006B82944D94480AF047FB2868934B00F504
:1013A00080520021C2F864091A682A6041F664126A
:1013B00018606BF050FD8C480AF0C8FB2A6802F5F3
:1013C0008053D3F864591378AD1A2BB1134613F830
:1013D000011F0029FBD19B1AAB4240F0A683DBF82A
:1013E0000010012000902B4658468D690021A84727
:1013F0000BE705980644002306F8013C9BF80D30E6
:10140000202B40F0798410F8013F202BFBD07BB1DA
:10141000034613F8012F002AFBD1191A002903DC17
:1014200006E098421A7003D013F8011D2029F8D065
:101430006F4B1B68984700231A46194658463AF0E6
:1014400003F9E2E6424629460BF11103584665F0DE
:1014500039FADAE654F01CFA0DF13008654B664AA9
:10146000009020218DED028B40460CF083FD40461C
:10147000FFF773FC4246431C0021009158460121AE
:101480003AF050F9C1E6DBF82C145C4A5C483CF0B9
:1014900035FD012158465FF01DF8B6E6484A594827
:1014A000936801339360002143462A463CF026FDB1
:1014B000554B1B78002B40F090825A4641462846F7
:1014C0003CF066FD0646002840F01A83424BB3F814
:1014D000B62C002A40F0A18208331D4443462A4618
:1014E000CAE7012E494814BF43464FF4E2632A4637
:1014F00059463CF06DFD88E6BBF80D60BBF80F3037
:1015000043485BBA75BA9FB2ADB23A4629463CF041
:10151000F5FC404849F0F0F9202D00F23D81202DE6
:1015200000F2108301A353F825F000BF5D1B0008F3
:10153000451B0008451B0008451B0008451B00080B
:10154000451B0008451B0008451B0008451B0008FB
:10155000451B0008451B0008451B0008451B0008EB
:10156000451B0008451B0008451B0008451B0008DB
:101570006D1B00087D1B0008BB1B0008F91B000841
:101580004D1C00085D1C0008451B0008451B000899
:101590006D1C0008451B0008451B0008451B000882
:1015A000831200088B1C0008AB1C0008CB1C000831
:1015B00029460BF10F030122584665F083F924E612
:1015C00044A50020E25D001020510010A845070846
:1015D000CCA4002038370020185100102C1A01200C
:1015E000303700208C170020301A0120901700207F
:1015F000181A012030450708384507081C45070818
:1016000030210708044607083BB301209417002047
:1016100090460708581C00100DF13008404640F075
:1016200005FBB34AB348D3680133D3603CF066FC92
:1016300053F0F4F9B04B1B78002B00F0D38100235A
:101640001A460421584639F0FFFF404640F0FCFAA4
:1016500060EE297A17EE900AFFF736F902460B463C
:10166000A6483CF04BFCD0E5A5484FF4E2630022CD
:1016700059463CF0ADFCC8E5A24D002205F14007FB
:101680002946012031F8023F5B0B1CBF03F1FF33F9
:1016900000FA03F3B9421A44F4D10021584639F054
:1016A000BDFFCDE9064906460DF130084FF0010AAD
:1016B00035F8023F5C0B1DD0934A0A92013C0AFAAE
:1016C00004F424220B9200940AAA06CAC3F30C0362
:1016D00040465CF0C1FFDBF800302246D3F80090B2
:1016E000414600235846C8473146224640465CF0F2
:1016F00041FD0646BD42DBD1DBF8003036BA1D683D
:101700000C96DDE906494146584601230422A5E529
:101710007E4B1B78002B00F0718100205AF04CFEAC
:101720000546002800F07381D0F8E4340121024618
:1017300003EB83035846009139F0F4FF28465AF032
:101740006BFE62E502460A2349465846B8479BF8B5
:101750000C7038463AF082F800283FF455ADDBF8BB
:1017600000300599D3F8048005F1030A4FF47A7329
:1017700052465846C04782453FF4D3AC44E5002565
:10178000A846E8E44FF00008E5E4002B40F0528161
:1017900000238BF8303437E5B6F53A4F00F0CC82B1
:1017A000B6F53B4F00F07D83B6F5F24F40F0CA81AD
:1017B00054F010F958463AF045F826E59BF83034D5
:1017C000002B3FF421AD2B4602469BF80C105048ED
:1017D0003CF094FB4F49DBF82C0465F061F8822162
:1017E00058465EF095FE00238BF830340CE5C01AA5
:1017F00061EB02010A1E03DAC31C184642F1000223
:101800008308D6F83C15444800FB01F14348A0FB8F
:10181000010143EA82730909921000209942904124
:10182000BFF6AAAD3E493F483CF034FB3E4B93F82F
:10183000C03D002B40F060813C4D03F0A9FF2B68B8
:10184000032B7FF49EAD364939483CF023FB3848E2
:101850003EF066FC012337482B60B0EE490A41F0A8
:101860009DFB00283FF495AD324840F0DFF9338905
:10187000692B96BF304A002752F8237054F008F8BD
:1018800005463CF081F82946CDE900702B4B2C4AE7
:101890002C483CF033FBB6F8DC12012902D92A4867
:1018A0005CF04CFCB6F8DE12012902D927485CF046
:1018B00045FC274D274F05F1080835F8021F01297F
:1018C00002D938685CF03AFC454507F10407F4D1C9
:1018D000D6F8BC310C2B9A46A8BF4FF00C0A002B4F
:1018E0007FF757AD1C4E1D4D37464FF0000863E0A3
:1018F00044A50020DC4507083BB30120EC45070860
:1019000094170020E05D001068FC002037B3012030
:10191000D04407080845070840420F00CDCCCCCC86
:1019200040CD070840370020004000102C1A01204D
:101930001C1A012030370020C0AA070844450708B8
:1019400025F4DECE504507086C6708087467080860
:101950004A530010B0AA07080492002092530010C6
:10196000698B012901D95CF0E9FBD6F8F006002863
:1019700077D0B5F82214012901D95CF0DFFBD7F844
:10198000D002002870D035F8021F012901D95CF07F
:10199000D5FBD7F82004002860D0B5F8D81B012962
:1019A00001D95CF0CBFB08F10108D04506F1200617
:1019B00007F11C07BFF6EDACD6F870050028CFD1B3
:1019C000D6F87405CCE7DBF82C04DC4964F068FF3A
:1019D000842158465EF09CFD17E4832158465EF052
:1019E00097FD12E434F0AEFDD54838F09FFBD548A2
:1019F0003CF084FAD44B01221A7020E65AF060FCC5
:101A000000205AF0D9FC054600287FF48DAE8421D1
:101A100058465EF07DFDFFF7F8BBCC4940F25E20F2
:101A20000BF10F054DF0FAFB3146424628466BF0AC
:101A300012FA53E53246DBF82C14C5483CF05EFA46
:101A4000C449DBF82C0464F02BFF842158465EF077
:101A50005FFD00238BF83034FFF7D6BBD7F82404A2
:101A60009BE7D6F8F40684E7D7F8D4028BE79847CB
:101A700000287FF4DBAA15B0BDEC048BBDE8F08F25
:101A800007F012FFB449099091F85100B34A0023BE
:101A900063F3820081F85100B1490C930B70116817
:101AA00009B1B0490B6000250CA8C2E9005565F0EA
:101AB00043F8AD4B09981D6008F03AFE584639F0DE
:101AC000C1FEFFF7A2BB00205AF076FC05460028B5
:101AD00000F02981D0F8E4340121024603EB8303AE
:101AE0000091584639F01EFE28465AF095FC58469B
:101AF00039F0A8FEFFF789BB9C483EF011FB9BE63E
:101B0000DBF82C049A4964F0CBFE842158465EF041
:101B1000FFFCFFF77ABB9749DBF82C0464F0C0FEAA
:101B200000238BF83034FFF76FBB2A46924941F609
:101B300086104DF073FB002251E40A2008F06EFE7F
:101B4000FFF762BB8D493B462A4640F25E204DF0CE
:101B500065FB584639F076FEFFF757BB884B584671
:101B600083F8FE7539F06EFEFFF74FBB854B002200
:101B700058461A6039F066FEFFF747BB00283FF46D
:101B800080AB7F4BDFED800AB3F8522D9FED7F0ACB
:101B9000D3F8601D07EE902AB3F82626F8EEE77A10
:101BA000384667EEA00A07EE902AF8EEE77A27EEAD
:101BB000800A52F0E5FCFFF764BB00283FF461ABFC
:101BC0006F4BDFED710AB3F8522D9FED700AD3F819
:101BD000601D07EE902AB3F82626F8EEE77A38461D
:101BE00067EEA00A07EE902AF8EEE77A27EE800A61
:101BF00052F076FCFFF745BBBB1F102B00F2E380D1
:101C000001A252F823F000BF2B1E0008EB1D0008B4
:101C100083120008C71D0008E31D0008C71D000847
:101C2000D71D0008951E00088B1E0008831E0008A3
:101C30006F1E0008651E0008571E00084F1E000892
:101C4000431E0008BD1D000883120008F8B255F0BD
:101C5000B9F9584639F0F6FDFFF7D7BA384652F0D1
:101C600069FD584639F0EEFDFFF7CFBA00283FF482
:101C700008ABDFED470A424B3846D3F8601DB0EEA3
:101C8000600A52F0D3FCFFF7FCBA424B42490122F2
:101C900040F25E201A704DF0C1FA38465FF0D4FC75
:101CA000584639F0CFFDFFF7B0BA3A4B3A49012216
:101CB00040F25E201A704DF0B1FA63205FF0C4FC70
:101CC000584639F0BFFDFFF7A0BA00283FF4D9AA63
:101CD0002B4BDFED2D0AB3F8522DD3F8601D07EE24
:101CE000902AF8EEE77AB1EE000A67EEA00A3846CD
:101CF00052F0DEFCFFF7C5BA0598FFF788BB3B46FC
:101D00004246014625483CF0F9F82549DBF82C0409
:101D100064F0C6FD802158465EF0FAFB00238BF884
:101D20003034FFF771BA584684215EF0F1FB584613
:101D300039F088FDFFF769BA3BF0A0F99045070834
:101D4000541D07085C1D070829B3012050460708E9
:101D5000004407083044070800000010EC19012077
:101D600037B30120E4190120E81901204037002091
:101D700038460708E4430708704507084047070846
:101D800018510010F4190120CDCCCC3D0AD7233CCA
:101D900000007A443BB30120CC46070850440708B2
:101DA00090440708404839463CF0A8F8832158463B
:101DB0005EF0AEFB8BF83084FFF726BA3B4B012276
:101DC0001A70FFF75EBA3A493A4640F25E204DF08B
:101DD00025FAFFF756BA374B012283F8502CFFF74C
:101DE00050BA50F06BFFFFF74CBA334E334DD6F874
:101DF000F8000D2385F8C83000B30368DB68984706
:101E0000F0EE407AD6F80401C5ED317A002845D0CD
:101E10000368DB689847F0EE407A294AC5ED657A99
:101E2000137801331370FFF72CBA234E234DD6F8E5
:101E3000F8000C2385F8C8300028DED1DFED217AC8
:101E4000E0E71C4B012283F8512CFFF71ABA45F04A
:101E5000DFFCFFF716BA1C4B01221A7065F04EF832
:101E6000FFF70FBA01204BF0CBFFFFF70ABA134B75
:101E7000002283F8C82003F5805383F8502CFFF725
:101E800000BA45F009FCFFF7FCB900204BF0B8FFA1
:101E9000FFF7F7B95FF04AF8FFF7F3B9DFED097A1A
:101EA000BBE73BF0D9F800BFB444070839B30120C1
:101EB000B446070800100010949D00200000001098
:101EC00038B30120000000003AB3012000000000F8
:101ED00010B590F8E03090F8DCC0174C83F00103A7
:101EE00063F3000C80F8DCC04FF48C6200212046C4
:101EF0006AF0B1FF4FF4F072002104F264406AF01E
:101F0000AAFF0E4B9FED0A7B03F5E45203F5005345
:101F100082ED027B03F2947003F5F362002100244A
:101F2000C3F850410160116010BD00BFAFF30080E5
:101F300000000000000000F0F01C00100000001085
:101F40009FED116BD0ED0F7A80ED030AB5EEC00A5C
:101F50000123F1EE10FA80ED066BC0ED097A80EDF9
:101F60000F0A03720BD9DFED0A6A86EE807AF5EE6E
:101F7000407AF1EE10FA80ED0A7A03D07047054BF3
:101F80008362704761F0EEBA0000000000000000BC
:101F9000ABC222480000C07F7F4B804810B59FED48
:101FA000787B9FED796B4FF03E0E83F82CE04FF07D
:101FB0003F0E00217A4C83F854E04FF0000C3D2294
:101FC0004FF0400E83ED046B83ED0E6B83ED186BC9
:101FD00083ED226B1A711C609C621C659C6783ED0B
:101FE000067B83ED107B83ED1A7B83ED247B1972D6
:101FF0001973196283F8301083F83410996483F8E8
:10200000581083F85C10196783F8801083F88410E7
:10201000C3F89810C3F824C0C3F84CC0C3F874C008
:10202000C3F89CC083F87CE0C3F8A040C3F8C84064
:10203000C3F8F040C3F81841422483F8CC4043244D
:10204000584A83F8F4404FF0410E442483ED2C6B42
:1020500083ED366B83ED406B83ED4A6B83F81C4157
:1020600083ED2E7B83ED387B83ED427B83ED4C7BD0
:1020700083F8A4E083F8A81083F8AC10C3F8C0106C
:10208000C3F8C4C083F8D01083F8D410C3F8E810A4
:10209000C3F8ECC083F8F81083F8FC10C3F81011F3
:1020A000C3F814C1C3F83CC183F8201183F824118C
:1020B000C3F8381145231371462382F8243047238F
:1020C00082F8443048239FED326B82F86430492314
:1020D00082F884304A2382F8A4304B244C2382EDCA
:1020E000067B82ED0E7B82ED167B82ED1E7B82ED00
:1020F000267B82ED046B82ED0C6B82ED146B82ED1E
:102100001C6B106011721173106282F8281082F833
:102110002C10106482F8481082F84C10106682F877
:10212000681082F86C10C2F8800082F8881082F87B
:102130008C10C2F8A00082F8A81082F8AC1082EDD2
:10214000246B82F8C44082F8E43082ED2C6B82ED7F
:102150002E7B82ED346B82ED3C6B82ED367B82ED23
:102160003E7BC2F8C000C2F8E00082F8C81082F8D6
:10217000CC1082F8E81082F8EC1010BDAFF30080AC
:102180000000000000000000400D030000000000FF
:10219000002D310100000000A82300206C64080815
:1021A0008C640808581A0020DFED5F7A5F4BDFF877
:1021B000A4C15F485F49604A2DE9F04F9FED566B1F
:1021C0005E4FDFF894815E4EC3F800809FED545B54
:1021D0004FF07E5EC3F804E0C3F814E0C3ED027A6A
:1021E000C3ED037AC3ED047A1F23564D564CCCF849
:1021F0000080CCF804E0CCF814E03B71CCED027A1E
:102200000023CCED037ACCED047A4FF0250BDFF8F8
:102210004CC133723373336286ED066B86ED045B1B
:10222000C6ED097AC6F800C086F804B04FF031094F
:102230004FF033062B722B733B723B733B6285F876
:10224000049087ED066B87ED045BC7ED097AC7F84C
:1022500000C085ED045B26714FF0350606712372D0
:102260002373236284ED045B84ED066B4FF0240638
:10227000C4F800C0C4ED097A344CDFF8E480DFF81C
:10228000E4E00E712B6203720373036285ED066B4B
:1022900080ED045B80ED066BC5F800C0C5ED097AE2
:1022A000C0F800C0C0ED097A002529480B724FF034
:1022B0003206C1E90A330B730B6281F8243081EDD9
:1022C000066B0860C1ED0C7A13721671C1E9044502
:1022D000C2E90A33137342F20441136282F82430D4
:1022E00043F23023DFF880A0A8F8041088F806B085
:1022F000AEF804308EF80690C2E9044582ED066B14
:102300001060C2ED0C7AC8F800A0CEF800A0BDE8BD
:10231000F08F00BFAFF3008000000000000000005D
:10232000400D0300000000000000000070210120AB
:1023300070260020102F0020D82E00209826002084
:10234000C0260020584100204826002000350C00FF
:102350004C64080898210120C8E907088C64080823
:10236000902101208821012030640808000000002D
:102370009FEDBF5B9FEDC06BDFEDC17ADFF83CC323
:10238000DFEDC04AC048C1492DE9F04FDFF830A366
:10239000DFF83093DFF830B3DFF83083CAF800C0DD
:1023A00000234FF002078AF804708AED045BB84FEF
:1023B0008AF808308AED066B8AF80C30CAF82030AB
:1023C000CAED097A4FF0170AC9F800C089ED045B1D
:1023D00089ED066B012289F8083089F80C30C9F8BC
:1023E0002030C9ED097A89F804A04FF018098BF85C
:1023F0000420CBF800C0C8F800C08BED045B88ED6A
:10240000045B8BED066B88ED066B8BF808308BF860
:102410000C30CBF82030CBED097A88F8083088F8FA
:102420000C30C8F82030C8ED097A88F8049087EDA0
:10243000045B87ED066B974FDFF894E2964ECEF87B
:1024400000C087ED045B954F8EF808303A4687ED63
:10245000045B904FC2F800C087ED066B8C4F13727F
:10246000C7F800C03B723B733B62C7ED097A894FE6
:102470001373C7F800C03B723B73864F136282ED43
:10248000066BC2ED097A864A3B62C7ED097A854F31
:1024900017607F4F8EF80C304FF00C0C87F804C09B
:1024A0007C4FCEF820304FF0060C87F804C07B4FED
:1024B000CEED097A4FF008084FF0340C8EED045B36
:1024C0008EED066B8EF8048087F804C0764F976116
:1024D000764FD761734F3760734FDFF8F8B1B7614C
:1024E000B7EE007AB1EE044A82ED017AC2ED027ACB
:1024F000C2ED037AC2ED047A82ED057AC2ED087A64
:10250000C2ED097AC2ED0A7AC2F82CB082ED0C4A0B
:10251000C2ED0D4A82F838303A46644F644D654C3E
:10252000F761624F86ED017AC6ED027AC6ED037A55
:10253000C6ED047A86ED057AC6ED087AC6ED097A0D
:10254000C6ED0A7AC6F82CB086ED0C4AC6ED0D4AE7
:1025500086F83830534E2E6085ED017AC5ED027A4B
:10256000C5ED037AAA61C4E90627C5ED047A85EDB5
:10257000057AEF61C5ED087AC5ED097AC5ED0A7AED
:10258000C5F82CB085ED0C4AC5ED0D4A85F83830FC
:102590002660154684ED017AC4ED027AC4ED037A13
:1025A000C4ED047A84ED057AC4ED087AC4ED097AA5
:1025B000C4ED0A7AC4F82CB084ED0C4AC4ED0D4A7F
:1025C00084F83830066080ED017AC0ED027AC0ED03
:1025D000037AC0ED047A80ED057A8261364AC761DC
:1025E000C0ED087AC0ED097AC0ED0A7AC0F82CB0C7
:1025F00080ED0C4AC0ED0D4A80F838300E60166050
:1026000081ED017AC1ED027AC1ED037AC1ED047A60
:1026100081ED057A8D619561CF61D761C1ED087A51
:10262000C1ED097AC1ED0A7AC1F82CB081ED0C4AEE
:10263000C1ED0D4A81F8383082ED017A82ED057ADC
:10264000C2ED027AC2ED037AC2ED047AC2ED087AD5
:10265000C2ED097AC2ED0A7AC2F82CB082ED0C4ABA
:10266000C2ED0D4A82F83830BDE8F08FAFF300803C
:10267000409C00000000000000000000000000007E
:102680000000000000007A4434230120F8220120D9
:1026900080AB001058AB0010AC23012030AB001011
:1026A000E8230120C8E90708206408081064080826
:1026B0008022012070230120BC2201208C640808A4
:1026C000D0AB001008AB0010F8AB0010E0AA00106F
:1026D000A8AB0010006408082DE9F04FB64DB74EC6
:1026E000DFEDB77AB74CDFF81893DFEDB74AB74F95
:1026F000B74837624FF00F0C9FEDAB5B9FEDAC6BB3
:1027000085F824C04FF00E0C86F824C006F1040CA6
:102710000023B7EE007A2F62C6F840C04FF01107D1
:1027200005F1040CDFF8DC82C5F840C0C6E90039C9
:10273000C5E90039C4E9003986ED0C5B85ED0C5B19
:1027400086ED0E6BC6ED037AC6ED047AC6ED057A0A
:10275000C6ED064A86F8283086F82C30C6ED117A88
:10276000C5ED037AC5ED047AC5ED057AC5ED064AD7
:1027700085F8283085F82C30C5ED117A86ED027A7F
:1027800085ED027A85ED0E6B84F82470271D276491
:10279000071DDFF874A20764C8E9006540F60D67FD
:1027A0004FF01206894D80F82460A8F80C70894E0D
:1027B00084ED027A4FF00F0784ED0C5B84ED0E6B15
:1027C00080ED0C5B80ED0E6BC0E90039C4ED037A3F
:1027D000C4ED047AC4ED057AC4ED064AC0ED064A9C
:1027E00084F8283084F82C302562C4ED117A80ED0D
:1027F000027AC0ED037AC0ED047AC0ED057A80F864
:10280000283080F82C300562C0ED117AC8F80860D5
:1028100088F80E70CAE900406F487049877140F629
:102820000D6484804FF0140481F824406C4CC0ED9A
:10283000027A4FF01207A7718AF80E70694F07608D
:10284000C0ED037A6848C8ED047A88F8143041F284
:102850001018664A27600760A4F804804FF0150737
:10286000C4ED027AC4ED037A41F213448480877187
:10287000C0ED027AC0ED037A081DDFF890B181ED5A
:10288000027AC1E90039C1ED037AC1ED047AC1EDE4
:10289000057A81ED067ACAF80860AAF80C80CAEDBC
:1028A000047A8AF8143081F828300864101D106406
:1028B0004F4881F82C3081ED0C5B81ED0E6BABF84D
:1028C0000C400D624B4CC1ED117ACBF800104A4917
:1028D000DFF83CE1046082ED0C5B82ED0E6BC2E937
:1028E000003982ED027AC2ED037AC2ED047AC2EDBC
:1028F000057A82ED067A82F8247082F8283082F810
:102900002C301562C2ED117ACBF804204FF016047A
:102910004FF01B029FED394ACBF80860C1E900393E
:1029200084808BF80E70CBED047A8BF8143081ED37
:10293000027A81F824200A1D4FF01C0C0A640EF163
:10294000040281ED0C5B8EED0C5B81ED0E6B8EED68
:102950000E6BC1ED037ACEF804908EED027A8EF8FC
:1029600024C0CEF84020C1ED047AC1ED057A81ED96
:10297000064A8EED064A81F8283081F82C300D6227
:10298000C1ED117ACEF82050CEF80030CEED037AAA
:10299000CEED047ACEED057A8EF828308EF82C3004
:1029A000CEED117ABDE8F08F409C000000000000E1
:1029B0000000000000000000004600204846002003
:1029C00000000000B8450020000048438C6408085F
:1029D00070450020C863080814B90020284500206D
:1029E000ECB80020AC630808C4B80020E044002024
:1029F000B0210120E46308080022002000007A448E
:102A0000C8E9070824B90020FCB80020D4B8002089
:102A1000B8210020000000002DE9F04F2DED028BC1
:102A200004488DB0FDF704FD30B10DB0BDEC028B54
:102A3000BDE8F08FB81900200124AE490094234668
:102A400049228046AC483CF045FFAC48C0F81080B5
:102A50003AF048F8AA4AAB4B12681A80120C9A70E6
:102A6000A94B9C6302F094FE58F0FCFCA749A848CF
:102A70003DF072FBA749A8483DF06AFBA749A8486A
:102A80003DF066FBA749A8483DF062FBA749A8486E
:102A90003DF05EFBA74B1C78002C00F02082A6497D
:102AA000A6483DF05DFBA648A6493DF055FBA64B68
:102AB00093F8FC22100704D593F81727002A40F05A
:102AC000D8829C4B1978002900F097823AF05EFB7F
:102AD000002840F0BB829D4C9D4F04F580664FF06E
:102AE000FF3521462A463846203409F03BFDB442E2
:102AF000F7D1984898493DF033FB984800F5805449
:102B000094F8AC31002B00F0978295499548964C8B
:102B10003DF02AFB954996483DF01AFB95499648A9
:102B20003DF016FB94F85C36002B00F07A82934B54
:102B30005A68002A00F0988251F070FF00283FF494
:102B400074AF8F498F483DF003FB8F498F483DF0AC
:102B5000FFFA8F498F483DF00BFB8F498F483DF0BE
:102B6000FFFA8F498F483DF0FBFA8F498F483DF0BF
:102B7000F7FA8F498F483DF0FFFA8F498F483DF0B3
:102B8000EBFA8F498F483DF0E7FA8F498F483DF0C7
:102B9000E3FA8F498F483DF0DFFA8F498F483DF0C7
:102BA000DFFA2FF091FA8E484FF0D8FD8D4B8E4909
:102BB0008E4801221A603DF0CBFA8D498D483DF0D8
:102BC000C7FA8D4A8D4805215FF098F88C498D48E9
:102BD0003DF0BEFA8C498D483DF0BEFA8C498D48D7
:102BE0003DF0BAFA8C498D483DF0BEFA8C498D48CB
:102BF0003DF0BAFA8C498D483DF0BAFA8C498D48BF
:102C00003DF0B2FA8C498D483DF0B2FA8C498D48BE
:102C10003DF0AEFA8C498D483DF0AAFA8C498D48BA
:102C20003DF09AFA8C498D483DF09EFA8C498D48CA
:102C30003DF09AFA8C498D483DF096FA8C498D48C2
:102C40003DF092FA8C498D483DF08EFA8C498D48C2
:102C50003DF07EFA8C498D483DF086FA8C498D48CE
:102C60003DF076FA8C498D483DF082FA8C498D48CA
:102C70003DF07EFA2F4B1B78002B00F045828A4DE9
:102C80008A49012423464A22284600943CF022FE29
:102C9000234663228649009405F10C003CF01AFE9D
:102CA000294B244A93F839351278DB0700F16F86F7
:102CB000204B1B78002B40F00F817E48036139F0D8
:102CC00011FF214BB3F8D444204639F069FF38B1E5
:102CD0009FED7C0A784B7949794822465EF0F0FDF9
:102CE000194BB3F8E444204639F05AFF002800F0AD
:102CF000F380E9E0B054080888930020C840012020
:102D0000C4540808AC66012038370020A9B405086F
:102D1000C85408080DB60508D454080885240408CA
:102D2000E85408085D170408F4540808A1270408AB
:102D30000855080825B30120154A05081855080844
:102D400070560808B56F050818510010E85F00209C
:102D5000809B0020AC560808D5C50108E863002018
:102D6000B9FD0108A0FD0608A0750020EDC5010809
:102D7000BC56080851D70108C856080898200020FA
:102D8000C9380508D4560808452E0508E056080835
:102D9000093B0508EC560808253A0508F8560808C6
:102DA000D539050800570808FD3905080C570808EB
:102DB0004D3A050818570808F12B05082057080850
:102DC000CD2B05082C5708084D2B0508345708084B
:102DD000712B050840570808952B05084C57080823
:102DE00048130010C46601207DCF0408545708081A
:102DF0006DAD040874570808CDCF04088057080843
:102E00002DD6040898570808F5AE0408A4570808FA
:102E1000FDAE0408B05708081DD60408BC570808C2
:102E200025D6040848CC07089DD70408B4F5060841
:102E300031D6040808F60608BDD00408C4570808AF
:102E400009D10408D857080855D10408F0570808D4
:102E500025AD03080C580808ADD00408145808081C
:102E60009DD004082858080899D204083858080842
:102E7000A1D2040848580808EDD104085858080899
:102E8000A5DB040860580808A9D204086C58080893
:102E900051F00308845808089D0C0508905808084C
:102EA000A1D10408A8580808949300207C5B080866
:102EB000905B0808D04101206C180020B05B080826
:102EC000F841002000401C461FED020A714B724978
:102ED000724822465EF0F4FC33F022FBA5E5704D0B
:102EE00070483BF00BF8312221466F4869F0B3FF80
:102EF00095F869015DF07CF895F830055DF078F89B
:102F000095F8CF025DF074F8684969483DF024F9FE
:102F1000202383F3118806F069FA664803785A1E65
:102F2000012A7BD8012B446001D107F04BF9614B9A
:102F300002221A7006F058F9202383F3118806F054
:102F400055FA5D4803785A1E012A67D80022012BE2
:102F5000426001D107F036F9574B02221A7006F091
:102F600043F9564A5648536843F40003536090F8B7
:102F70003C33002B00F02885524B9A689B6C5380A1
:102F8000202383F3118806F031FA4F4A1378591E33
:102F9000012900F2F9844D495160012B1DD14C4BA0
:102FA0004C48196C41F010011964196E41F0100180
:102FB0001966196E196A41F010011962196A21F037
:102FC0001001196244491B6A90604FF4800370221B
:102FD00081F83623C1F884314B603B4D3B49A868EA
:102FE0000A68B0FBF2F3013B9BB203FB0222904262
:102FF00000F0EE84394806F07BF8294B38481B89ED
:10300000692B9CBF374A52F823103AF077FF44F0FF
:103010005FFB354935483DF09FF857E5344806F0E9
:1030200067F80123D4F8581684F85C36204632F04D
:1030300033FDC4F860067AE50123D4F8A81184F8BA
:10304000AC311AF04DFBC4F8B0015EE5294CE569DE
:10305000002D40F0A58428484EF66021C4E90810F0
:103060005FF05AFEE56136E5244A11685960136045
:1030700062E5D88C39F094FD00283FF422AD00229F
:1030800000921F4B1F487F224FF4CA6108F0D0FB0B
:1030900017E500BF78180020B05B080870420020D8
:1030A000185100102055080808110120CDF0030820
:1030B00038550808AC8C0020888C00200023014083
:1030C00048560020EC1701202C8B00202C180020E3
:1030D0000038024000BD010500E100E00468080876
:1030E0007C560808C0AA0708C52C0408DC73080829
:1030F000E4670808109D0020000002200818002046
:103100009D04040898590020BD49BE483DF020F8B0
:10311000BD4ABE4805215EF0F1FDBD4ABD48102103
:103120005EF0ECFDBC4ABD4811215EF0E7FDBC4AF3
:10313000BC4810215EF0E2FDBB4ABC4811215EF0A4
:10314000DDFDBB4ABB4811215EF0D8FDBA49BB4842
:103150003CF0FEFFBA49BB483CF0FAFFBA49BB4815
:103160003CF0F6FFBA4ABB4805215EF0C7FDBA49FC
:10317000BA483CF0EDFFBA49BA483CF0E9FFBA4919
:10318000BA483CF0E9FFBA49BA483CF0E1FFBA4915
:10319000BA483CF0DDFFBA49BA483CF0D9FFBA481A
:1031A000BA4A11215EF0AAFDB94890F83C33002BD1
:1031B00000F03D84B74DA5F26C5451F005FBB648C4
:1031C00029463AF065FDB4F8BA0239F0E9FC68B175
:1031D00004F28C6393ED000ADFEDB00AB04AB14906
:1031E000B148B8EEC00A00235EF0A4FAAF4BB3F9C1
:1031F000D420B3F93A10914200DA5A87AC4BAD4E65
:10320000AD4CAE4DDFF8A492736003F14001B160A4
:1032100003F15001F16094F84119DFF808B34FF061
:103220007E52142740F25C7AB26132617261AA6107
:103230002A616A6117FB01A103F1600249446A60D7
:1032400004F6441003F1A002B033AA60EB603AF038
:103250001FFD94F88D19C4F8746917FB01A1494446
:1032600004F51960C4F878B93AF012FD94F8D91948
:10327000C4F8C05917FB01A10BF17803494404F6C7
:10328000DC10C4F8C4393AF003FD94F8253AC4F8C8
:103290000C6A17FB03A104F628200BF1F003494444
:1032A000C4F8103A3AF0F4FC0BF5B473C4F8585A69
:1032B000C4F85C3A4AF0E4FEB9F8B20239F070FCA6
:1032C00040B17F4890F83C330A22C0F84823002BD5
:1032D00000F0CE85754B93F8A8335B0600F1AE8302
:1032E000784836F079FE784836F076FE774836F042
:1032F00073FE774836F070FE012052F0CDFF6B4B25
:1033000093F8FF22570640F17F8393F82D359E07EF
:1033100002D5DD0700F1B0866E4940F25E204BF029
:103320007DFF624B93F8E925940609D593F82D3576
:10333000D80700F1D585684940F25E204BF06EFF5A
:103340001F2036F0B3F948B9584B644CB3F82473D6
:10335000B3F82663A368002B00F00886534B93F85C
:103360000A124B1E2F2B0CD85D4C5E4BDFED4B0A27
:103370009FED5D0A236220463CF078F8204636F047
:103380002BFE4A4D594995F82602594F53F000FC3F
:1033900095F8F202574953F0FBFB52F057FF05F640
:1033A0000A56002405F63B5515F8012F36F8021F82
:1033B000013438463CF010F8082CF5D14E494F48FE
:1033C0003CF0D6FE4E494F483CF0C2FE4E494F48B5
:1033D0003CF0BEFE4E494F483CF0BEFE334B93F8E6
:1033E0003935590600F137834B494C483CF0B0FE63
:1033F0004B4B93F82720002A40F09A8094E000BFBE
:103400006D300508BC5808081D300508CC58080860
:1034100071450508DC58080851450508E8580808B2
:103420001D460508F4580808FD4505080059080818
:10343000914605080C5908087930050818590808FC
:10344000252F050828590808312F05083459080880
:10345000D52E050840590808C93005084C590808F8
:10346000312805085C590808557005086C5908088A
:10347000CD2F050880590808812F050890590808A4
:10348000193105089C590808A85908081547050866
:10349000A0840020845600103806001000000000B0
:1034A0002C940020B4590808C83A00201851001084
:1034B0001C8F0010B041012000000010904101203D
:1034C000508100205C4101204C4101203C41012001
:1034D0002C410120C8590808005A0808C4240120BA
:1034E000D880002084410120CDCC4C3D2881002093
:1034F0002C5A080800810020C53E0508385A0808E3
:1035000061470308485A0808B1AE03085C5A080826
:10351000713905086C5A0808FD9D0308601B0708EF
:10352000E842002080370020B64A1168D962136053
:10353000B54EB64CB4614EF660220023C6E90223B4
:10354000304604F236630025336286F826503CF09C
:1035500003F8AF4BAF4A5A60012102F5807286F83A
:1035600027109A604FF07E562032AB489E61294664
:103570001E615E61DA6023F079F8A84BA84AA94879
:10358000A9495A6002F580729A604160103201F5D3
:103590008071DA608160A54A9E611031C16010318E
:1035A000516040311E615E619160A14B96611031A6
:1035B00016615661D16001F160021031C3E9011258
:1035C0008661066146619E611E615E6101F1600275
:1035D000984EDFF8E0B2DFF8E092DA60A4F23254FD
:1035E000B4F8A479384639F0DBFA002838D0B4F8BA
:1035F000A839914903933A460C2707EE903A07FB06
:1036000005B73846B8EE678A3CF064FC039B4FF080
:10361000780AB3F100080AFB059A18BF4FF00108B9
:10362000002B40F0C481854B53F8253004F6CE12B0
:103630005A604FF07C529A6104F6AE129A604FF0D5
:1036400080421A6104F6BE12DA604FF07E525A616F
:10365000C6E903A7736104F6A41386F808807360B3
:103660000135042D04F16C0406F11806B8D1744C30
:10367000744D94F8603404F28C50002223F0070358
:1036800005F64811A5F8C02584F860343AF000FB2F
:1036900095F8C5306C4DDA064CBF04F5966004F51C
:1036A0008F602946664C3AF0F3FA4CF0A7FD0022F1
:1036B00084F8482404F58A62644B136004F24C4297
:1036C000634964481360A5F2B4553CF049FD624873
:1036D00062493CF03DFD95F8C530DB064CBF04F572
:1036E000966004F58F60574C04F2B45104F2BC5359
:1036F00004F5B7620D681968C36A12685A600268F7
:103700001D60526899609047554956483CF020FD2D
:10371000554B1B78002B36D1494B544A54485549D8
:10372000554D564EC3E9EB0255483CF011FD554945
:1037300055483CF00DFD554B5549564A5D614FF0DB
:103740007E508861086190611061186104F68C10E8
:10375000C8605148486151489861514898600630A6
:10376000D86004F62C6004F69814C1E901044D49B0
:10377000566004F6184400F28C70C2E902405561AC
:1037800059604BF009FE2F4B93F838359F0600F136
:1037900052814AF073FB444A44499369444FD2E949
:1037A0000405C2E90010C2E902530124631E03F0BC
:1037B000030304F0030152F8233052F8216083EA36
:1037C000937307FB034301347340082C42F8213004
:1037D000ECD1D2E901310B43D1680B43116821F0E0
:1037E00000410B4307D149235421C2E900134E265F
:1037F0005923C2E902632C4BD3E90017DE689B68AA
:103800005CE000BF50B90020E84200204A5600109A
:103810000C4101209C950010CC0A0010E49100207E
:10382000DC960010048F0020FC970010E48E00202E
:10383000C48E0020DC240120245B080820680808CE
:103840000000001018510010CC5600100000C8C233
:1038500075C604082C5B0808385B080849C60408CC
:1038600009F70308445B080825B30120201F002046
:10387000E01F002019DE04080AD7233C88660010E8
:10388000505B0808A5B804085C5B0808EC40012000
:10389000901A01200C2101200000C842CDCCCC3D63
:1038A000549C0010309C001018C900206F86140032
:1038B0006589076C3C180020F87C002000E0674612
:1038C00021F0004187EA03024A4082EA420282EA8A
:1038D00056014E4046F3000100EA010C82EA8622BE
:1038E0002940013C8CEA030C82EA01033946E6D107
:1038F000854ADFF8A4E2854DCEF80C60A2F66C6133
:10390000CEE901C3088E8249824B6B614B614FF057
:103910007E53814EAB612B618B610B61A2F2D4436C
:103920006A60AB608B60A2F59C632432CEF80070B5
:103930003470EB60CB604A6039F032F958B12346FD
:10394000DFED760A9FED760A764A774977485DF093
:10395000F1FE01233370764B764CB3F8020E00254E
:10396000257039F01DF900283FF489A92B469FEDF9
:103970006C0A714A71497248F6EE000A5DF0DAFE8F
:1039800001232370FFF77BB96E4805F0B1FB002AD5
:103990007FF4A2AA6C496D483CF0DAFBFFF788B9C6
:1039A0006B4940F25E204BF039FCFFF794B8694B4D
:1039B000DFED690A53F82510B0EE480A00233A46B5
:1039C00050465DF0B7FE2EE637F074FDFFF7D4BA2F
:1039D000D1E9020222F0FF01EA6800261660506079
:1039E000936216610223D1602B7005F015FC202331
:1039F00083F3118805F0FAFC05F0AEFF2B78022B5B
:103A000068D0564805F074FB93F83C32013B2F2BED
:103A100002D8534836F0E0FA454B93F83D32013B6B
:103A20002F2B3FF67EAC4F4836F0D6FA79E437F0CC
:103A300041FDFFF7BFBB4EF00BFAAAE64A4850F033
:103A400055FF4A4850F052FF494850F04FFF49484F
:103A500050F04CFF44E4484B93F8BC21002A00F09E
:103A6000538293F8BD21002A00F06082D3F8C03160
:103A70000B939DED0B8A18EE100AFCF725FF044608
:103A800022463E480B460D463AF038FAB4EE488AD4
:103A9000F1EE10FA80F15E82DFED397AB4EEE78A5A
:103AA000F1EE10FA00F35682DFED367AB4EEE78AD3
:103AB000F1EE10FA00F14E8233483AF01FFA2E4B25
:103AC00040F20111002283ED5E8AA3F8741183F89D
:103AD000762189E403236A682B70EB685268092118
:103AE000D962012159615E621E6112B1DA680A432E
:103AF000DA6085221A6005F08FFB24492448254EA0
:103B00003CF02AFB01254CE0845F0010749D0020EE
:103B1000549D00200000C84254B30120CDCCCC3DC0
:103B20000000C07F6C940020645B0808807C00204B
:103B30001851001053B30120AC940020705B0808AA
:103B4000087C002014680808BDB40508A45B0808B8
:103B5000905608083068080800000000F067080860
:103B6000784101206C410120807F0020487F0020A7
:103B7000107F0020D87E0020949D0020785A0808ED
:103B80000000DC4200007042C05B08084DEF0308F3
:103B900044550808E410012018C90020284606F002
:103BA0003DFE3368012BF9D9B34B93F8A923D10615
:103BB0006BD5D3ED717ADFEDB16A9FEDB16A93F801
:103BC0002C359FEDB00A67EEA67AB6EE007A67EE66
:103BD000877ADB0686EE277AAB4BDFEDAC6AD3ED56
:103BE000007A9FEDAB6A27EE267AF4EEC67A48BFDC
:103BF00037EE077AF1EE10FAD8BFF0EE477AF0EE22
:103C0000046A27EEA67AB4EEC07AF1EE10FA00F359
:103C100085829FED9A7A9F4B67EE877A002287EE26
:103C2000800A5AF075FD5A60B0EE087AC0EE076A55
:103C3000F7EE004A36EEA45ABFEE007AA0EE005A24
:103C400074EEE65A84EE856AA0EE007AE0EE005A41
:103C500037EE077A66EE866A67EE067A26EE256A02
:103C6000B1EE667AC3ED006A83ED027AC3ED037AA2
:103C700083ED046A8848032259213BF0ADFB874855
:103C800090F83C33002B00F046827B4B93F8FC32DB
:103C9000DA0700F1CC81784B93F8FC329F0700F1F2
:103CA000CE81754B93F8FC325E0700F1C481724BF4
:103CB00093F8FF329D0700F1CA816F4B93F8E93505
:103CC000180700F1C0816C4B93F8E935D90600F173
:103CD000C281694B93F8FC3E6BB3714D0F335B01AE
:103CE0000022C5E9232305F1A8000123142285F849
:103CF000A330C5F894203DF099FFAB69002B00F08C
:103D00002182684A138852681A4492B241460120BF
:103D100071B9002B00F00D81B3F5A27F04D2B2F58A
:103D2000A27F0146F4D906E0B3F5AA7FC0F09980DE
:103D3000002B00F0FE805B4E454645B9338833B119
:103D4000B06803681B689847031EC0F2C68100254F
:103D5000494E554F0095F28C54492B4638463BF05E
:103D6000B9FD0095B6F8C82251492B46A7F58670D3
:103D70003BF0B0FD0095B6F8F4224E492B46A7F56E
:103D8000D4703BF0A7FD4C494C483CF0E1F94C4A5B
:103D900096F82D3515709A0701D4DB0744D5364FB8
:103DA000398D788D39F026FAB7F82C160646B7F813
:103DB0002E0639F01FFA0546002E00F06581864276
:103DC00000F0F98197F81836062B96BF3D4A3E4B16
:103DD00052F82330284A186892F820265968570666
:103DE00008AB03C302D501F10043099308A930468B
:103DF00006F0FAFB002D40F04A81344BC3E9006520
:103E00001D4B93F82D35980705D5314F97F8AC33F6
:103E1000002B00F05781184B93F82D35D90700F18E
:103E20006481274B01221A702A4B1B7853B9124B1D
:103E3000B3F8DC0238F0B4FE002800F0898126488F
:103E400036F0CAF80C4B93F8A853ED0940F00781FF
:103E500038F040FF3BF0E6FD20483AF04FF8FEF71F
:103E60001EBEB2F5AA7F4FF001017FF651AF62E7A7
:103E700037F020FBFFF72EBA18510010DB0F494036
:103E800000006144809F55486860001000007A443B
:103E90000AD7233C98B80020685508080053002032
:103EA000F087002050190120B8940020A45508087C
:103EB000AC550808B855080869B80508C45508087D
:103EC0002AB30120C0670808DC670808A46601203F
:103ED00020BA001025B30120581C001058560808BD
:103EE000BB4850F003FDBB4850F000FDBA4850F00D
:103EF000FDFCBA4850F0FAFCB94850F0F7FCB9485C
:103F000050F0F4FCFFF71CBAD3F8C44174B1236835
:103F100020469B68984748B1236821465B680AA8F9
:103F200098479DF82830002B7FF4A3AD9FEDAE8A13
:103F3000A1E5AE4BAE49AF4AAF48C3E902214FF409
:103F4000A271102219805A60AC4900221A613CF01B
:103F5000FFF8F0E6AA4922462B4640F6B2004AF0A6
:103F600061FDA84839F0CAFFFFF73EBA384638F07D
:103F700017FE00283FF4F2A9304638F011FE002861
:103F80003FF4ECA9A04D0522284639463BF024FA1F
:103F90000522314628463BF01FFA38465DF008FFFF
:103FA00039462060284638F045FF606030465DF0B5
:103FB000FFFE314603462846A36038F03BFF6268A7
:103FC0002168E060012505FA02F292B20A8305FA3F
:103FD00000F3A2689BB213830DF113010F23204657
:103FE0002A468DF813305CF0C3FA2A460DF112010F
:103FF00020465CF0D7FA9DF81230B12B00F09F807C
:10400000BD2B7FF4ABA94CF22043A8467F4CADF802
:1040100014302046022205A9C4F810805CF0A8FAEA
:1040200001237B48237535F0D7FFFFF797B90120AF
:104030003BF0E6FA2FE603203BF0E2FA37E60220F7
:104040003BF0DEFA2DE605203BF0DAFA3BE60420F1
:104050003BF0D6FA31E606203BF0D2FA39E693F887
:10406000A029052A00F20E81DFE812F0F900F6001F
:10407000AB00FF00FC007800664850F037FC664853
:1040800050F034FCFFF74DB900283FF4CDAE634B40
:1040900093F81A36062B13D8614A52F823305F4A38
:1040A000186892F820265968D20906AB03C302D0DB
:1040B00001F10043079306A9284606F095FA9CE60D
:1040C000584BECE70123D7F8A81387F8AC333846F0
:1040D00047F0D8FBC7F8B0039DE62A46524940F2A4
:1040E0005E204BF09BF8012527E65048C0F8686336
:1040F0001EB190F83C33002B5AD04D48C0F868539D
:10410000002D3FF48EAE90F83C33002B7FF489AE47
:1041100037F0D0F985E637F0CDF9B6E517EE900A1D
:10412000FCF7D2FB02460B46CDE90023414926A30A
:10413000D3E9002340F25E204BF070F89AE544F298
:10414000104363E73C4B1A68AA6114351D60D8E53B
:104150003A4B93F85C0C62F009FC73E640F20933C9
:10416000374900220B80374B37481A8035F034FF2F
:10417000364835F031FF294B354993F8A8230D70A7
:1041800092067FF565AE93F8A029052A00F281809A
:1041900001A353F822F000BF7942000879420008D9
:1041A00079420008513E000879420008513E00085B
:1041B00037F080F9A1E7274940F25E204BF02EF856
:1041C00032E64FF4D073CBE700000000F0B30A41B1
:1041D000A8800020788000204880002018800020DF
:1041E000E87F0020B87F002066A6CA42501901204F
:1041F00074550808F08700207C550808D1B40508DC
:10420000A85A0808D45A0808285A0808C4240120C3
:10421000A841002018410020D8400020185100106B
:10422000C0670808DC67080888550808B0B60010A1
:1042300040B300104855080808180020001000106E
:1042400022B3012020B30120C0880020A0880020D4
:1042500058B30120CC5508084FF4007380E74FF4A1
:10426000F8737DE740F2F1137AE70D4B4FF42172BA
:104270001A8040F2852276E70A4940F66E004AF03D
:10428000CDFFE5E5084940F66E004AF0C7FF254638
:1042900071E7064940F66E004AF0C0FFD8E500BF5E
:1042A00022B3012018560808F85508084056080897
:1042B000C14BC2481A696FEAC2526FEAD2522DE965
:1042C00080481A611A69C2F308021A614FF0FF347C
:1042D0001A695A695C6100215A6959615A691A6AF6
:1042E00062F080521A621A6A02F080521A621A6AE6
:1042F0005A6A5C625A6A59625A6A1A6C42F080526F
:104300001A641A6E42F080521A661A6E026842F4FB
:10431000807202601A6F02F44072B2F5807FB1B011
:1043200003D04FF480321A671967A349A44B0A6F70
:1043300042F001020A67013B02D00A6F9007FAD5EA
:104340009D4B1A6F12040ED41A6F196F12F0020FE0
:1043500014BF4FF480724FF400720A431A671A6F49
:1043600042F400421A67944B944A196B41F480213D
:104370001963196D41F4802119651B6D536843F46D
:104380000073536053681F07FCD58E498E4C002381
:104390001A460B6054F8220008310332302A0360B9
:1043A00041F8043CF6D18948894A8A4C8A4DDFF8A5
:1043B00048E28A4EDFF844C2894F4FF0FF318160F6
:1043C000C1604020A160E16082F806334FF4807143
:1043D000C2F88001802410604FF4007082F8073327
:1043E000C2F88041146082F80833C2F8801111606D
:1043F00082F80933C2F8800110604FF4806082F8BF
:104400000A33C2F8800110604FF4000082F81733BD
:1044100005F11009C2F88001106082F82833CEF847
:104420000430C2F88411CEF8083051600121CEE981
:104430000333CEF814308EF80010CEE90663C5E9D8
:104440000499DFF8BC91CEF82090DFF8B8E1CCF801
:1044500018E0DFF8B4E1CCF81430CCE90133CCE952
:104460000333CCF81C30CCF820E08CF80010DFF8D7
:104470009CC1C7F818C0DFF898C15A48C7F820C0D7
:1044800005F108064FF0600CC7E90133C7E90333B3
:10449000C5E902667B61FB616B60686239704FF44D
:1044A000802682F812C305F1180CC2F880611660EC
:1044B000C5F818C005F11C0C4B4CC5F81CC005F123
:1044C000200C4FF0B008C5F820C0484F29704FF4B9
:1044D000002582F813836762C2F88051156004F1E9
:1044E0000805636082F81483C4E902554FF480150F
:1044F000C2F88051156004F11005C4E904554FF469
:10450000001582F81583C2F8805115604FF48005BC
:1045100082F81683C2F8805115604FF00045217073
:104520004FF0040A82F83F834FF0020BC2F8845127
:10453000556004F1180582F84083C2F88811916033
:1045400082F84183C2F888B1C2F808B082F8428389
:10455000C2F888A1A56104F11C05E56104F12005FC
:104560002562154DC2F808A02A6C214C214EDFF8B7
:10457000A490DFF8A480DFF8A4E0DFF8A4C0DFF89F
:10458000A4B042F000722A642A6E42F000722A66D9
:104590002A6ED0F8002222400A43C0F80022D0F848
:1045A0000022224042F460620A43C0F80022C0F8B0
:1045B0004032C0F8443237E000380240007000401A
:1045C00041420F00E08B0020D4DC0608006002406E
:1045D00000E100E000640240148E00200020014051
:1045E000648C002000640040EC8D002000680040D6
:1045F0000000FFFFA88B0020AC8C0020888C0020DE
:10460000162C020000210140162C0202002201405B
:10461000162C02042C8B0020D08D0020B48D00209D
:10462000988D0020608D0020C0F8B032C0F8B43200
:10463000C0F80432C0F81432C0F80C12C0F81C12D2
:10464000D0F80C22C44C42F48042C0F80C22D0F8BE
:104650001C2242F48042C0F81C22D0F8002222F032
:104660000102C0F800222A6C22F000722A64286E2F
:10467000BA4A20F000702866A7F5B047286EC9F83E
:104680000430C9F80C7089F8001006F10C07DFF847
:10469000409331707360C6E90377C6E90B337361E9
:1046A000F361C6F83490AE4EAE4FC8F81860A6F568
:1046B0007C467B603970CEF81860AB4FCCF8043084
:1046C00006F58066CCF8186006F58066BE61A54EDA
:1046D00087F810A07B60FB6039704FF08047F7606F
:1046E0001646CCF80C308CF810A08CF80010DFF8CF
:1046F000E4C2C8F80430C8F80C3088F810A0CEF82E
:104700000430CEF80C308EF810A0CBF8043088F8C6
:1047100000108EF800108BF80010CBF80C3046F823
:1047200004CB02F1640CC2E911CCC2F81CC0C2F87F
:104730003CC002F1540C8D4DC2F818C0C2E908CC3F
:1047400002F10C0CC2E903CC02F1300CC2E90CCC32
:1047500005F10C0CC5E903CCDFF87CC2CBF818C01E
:10476000DFF878C2C2F84CC0DFF874C2C2F874C077
:104770000CF5E05CC5F81CC04FF0060C8BF810C0BF
:104780004FF0100B5361C2F838B002F1740BC2E95C
:104790000A32566011721265C2F840B0744A6B61F9
:1047A000C5E901332B6229706B62AA623032EA627A
:1047B000704A7148E26102F58062704EDFF824A20F
:1047C000C2616F4ADFF82082636104F10C0900F1D5
:1047D0000C0E07F52057C4E90133C4E90833E2623F
:1047E000C4E90399C0E90AA2C0E90133C0E908336A
:1047F0002170C4F828A043617360F361B36233622F
:10480000F36273623363C0E903EE01703170B36029
:104810005C4BC8F80030CA237B6253237B62FC6880
:10482000594AB26514F010044FF0A042C8F8047061
:10483000726500F04F83FB6823F02003FB6053494F
:10484000534A8868534D544F544E40F4C400886016
:10485000C868002320F4C400C8F80830C8600C6899
:1048600044F4C4040C604C6824F4C4044C60F0208C
:104870000424082182F80203C2F88041146082F8FF
:104880000303C2F8801111604FF0E02182F8290380
:104890004FF400740720C2F8844154604F618022B5
:1048A000AB608B61086105F11C0186F823203C4850
:1048B0003C4C3D4FAB62C5E907114FF0FF316962D7
:1048C0003A492160C5E9005500F10C01C5E90455DC
:1048D0006760C0E90133C5E90C334361344B0360C1
:1048E000C0E90311334905F1380005F047FF0127FE
:1048F000314BA861C36180F820704FF0200888F325
:10490000118862B6F2682D4B4FF6FF010A4013433F
:10491000F360D6F8FC302A4A43F08073C6F8FC30C6
:1049200013682C6B3B4313606B6B10221C43F277B4
:1049300086F822800CD184F3118862B6214E30466D
:1049400006F02AFF8146002850D01F4804F0D0FB13
:104950001E4804F0CDFB00BF008D0020988A002087
:1049600000000140148B00207C8D0020308D002041
:104970001600010600380040D08C0020488B002033
:10498000460001000C180020CC640808003C0140DF
:1049900000E100E03C8E00203F90020000ED00E0CE
:1049A000F49C00208C8A00200000022078B30120B3
:1049B000ADA20008E4640808001000200003FA0516
:1049C000001000E020430020D8640808D85D0808E3
:1049D00000580040A464080800040140058C000849
:1049E00000140140160001003C8B00204FF4E072DF
:1049F0005521304668F02FFA88F3118804F0F6FC50
:104A000004F0AAFFBA4BC6F86C31BA4BBA49C6F8E3
:104A10004C313A4606F5867306F5B870C6F87C3117
:104A2000C6F85091C6F88C6105F0A8FE5EF094F9C6
:104A300004F04CFB2B68AB4205D0AA699B689268D6
:104A40009A42C0F03F86002686F31188AB4BDFF810
:104A5000F0835E60082061F067FE314645F6BC12C7
:104A6000A74868F0F8F9A74834F066FCA64834F087
:104A700063FCA64834F060FC3746A54E314601374A
:104A80004FF0FF32404607F06DFD182F06F5807697
:104A9000F4D1A04890F83C33002B00F00F869E4ED6
:104AA0009E4A3368934200F003869D4A93424CD15C
:104AB0009C4806F1FC0139F021FA9B4806F17C0183
:104AC00039F01CFAD6F8F410984839F017FAD6F8ED
:104AD000F810974839F012FA9648311D39F00EFA5D
:104AE000D6E97823D6F8DC11934839F007FA934BCE
:104AF00093F8FC329F0600F1E885D6F874119048CF
:104B000039F0FCF9D6F878118E4839F0F7F9D6F873
:104B10007C118D4839F0F2F9D6F880118B4839F0C4
:104B2000EDF9D6F884118A4839F0E8F9D6F88811F9
:104B3000884839F0E3F9D6F88C11874839F0DEF966
:104B4000D6F89011854839F0D9F9754AD6F8EC11A4
:104B5000834891424FF0000318BFC6E97A32D6F875
:104B6000E811336039F0CAF9D6F8E8317D497E485A
:104B70000133C6F8E8313BF0EBFA7C497C483BF066
:104B8000E7FA7C497C483BF0E3FA7C4A7C4B7D4960
:104B9000916103F5007191607B49116103F5087122
:104BA000D1604FF07E5153605161784A78489061EE
:104BB00003F5A860506003F5E86003F5EC63D3608B
:104BC000744B1161516190600021012643F821600E
:104BD0002631B1F5E47FF9D16F4BA869C3F8386E7F
:104BE00038F058FA802840F358856C4839F086F937
:104BF00000256B496B483BF0ABFA62226A496B486F
:104C0000009501233AF066FE62205DF0D1F8684B12
:104C100062211860674838F00DF9674B67491860E2
:104C2000674B68481D703BF093FA6749674804F08A
:104C3000F5FB674B674A10219961936843F00803BD
:104C40009360654B1E7038F06DFD644B05931A46FA
:104C5000634B1578C3E90001002D00F0F2841AAB14
:104C60000693604D002038F06DFD95F8AC32002BB6
:104C700000F037855C4839F041F93AF025FD5B4991
:104C80005B483BF065FA5B495B483BF061FA5B4986
:104C90005B483BF05DFA5B495B483BF059FA5B4986
:104CA0005B483BF055FA5B4B5B495C4800221A704D
:104CB0003BF04EFA5A495B483BF056FA5A495B487A
:104CC0003BF052FA5A495B483BF042FA5A4B4FF0DC
:104CD0000042302183F81F13C3F880211A6057481F
:104CE00039F00CF90CA83CF0A1FF0023AAE000BFAA
:104CF000210D0008158C0008305B0808001000E04A
:104D000020510010B0290010C8290010E42900101B
:104D1000482601209046002000400240BEBAFECA4C
:104D2000EFBEADDE085E0808245E0808445E080891
:104D3000605E0808805E0808A05E08081851001030
:104D4000145F0808245F0808345F0808445F0808F7
:104D5000545F0808645F08087C5F08088C5F0808D7
:104D6000A05F080861BE0308BC5F08089DBD050878
:104D7000CC5F08087DD00308D45F0808483E0120B6
:104D8000DC8C00100AD7233C0000C842683E01209A
:104D9000CDCCCC3D8415001000400010E85F080821
:104DA00019E20308FC5F0808046008087C930020EF
:104DB000142001201C6008081820012019F803089D
:104DC00042B3012028600808FC6408087C8D00209C
:104DD000000C0040002004E044B3012025B3012072
:104DE00028370020D849002054600808B158050829
:104DF00064600808BD2C050870600808FDAC030855
:104E000064F90608B92D05087C600808C52D050859
:104E100088600808C417012079E40308986008082E
:104E200035E80308A06008081DE80308A460080826
:104E300099E50308A860080800E100E0B4600808EC
:104E40001C0E0120CDE90E33CDE910332E932CAB8F
:104E5000CDE92C33BE4B0B930BAB002224930023E4
:104E6000CDE91A23CDE92623B7EE008A0DF1380BE0
:104E700010ADDFEDB88AC4F10103B0EE689A0327E4
:104E800007934FF00109B0EE48AA2CA862F06EF823
:104E90004FF00008DDF890A03AF81800861E06F0E2
:104EA0000F0637F09BFF09FA06F6B6B246833AF8CA
:104EB0001860304637F092FFB11E01F00F0109FA79
:104EC00001F1012203F0EAFFB8F1000F10D14FF019
:104ED0000108DFE704F0E4F89F4BBC6080223C64EB
:104EE000FA603B613B61FB6823F08003FB60A6E452
:104EF000322005F093FCDDF8908038F814603046DD
:104F000037F06CFFB11E01F00F010122299109FA5F
:104F100001F1289003F0C2FF079B38F81360304678
:104F200037F05CFFB11E01F00F012B91002209FA4E
:104F300001F12A9003F0B2FF26AB00933146874B74
:104F4000874801223BF088F92A9B2B9A1B69D340A2
:104F5000DE0700F1198100220023CDE9262338F075
:104F6000E1FB299B289A09FA03F39BB2804613833D
:104F70008A462CA8322106F0F3FC269EB6EB0803E5
:104F8000DDF89C8068EB0A0AB3F5C87F7AF100026D
:104F9000C0F24983184651460893FBF70DFE089B63
:104FA00007EE900AB5EE007AF61827EE878A48EBEE
:104FB0000A0838F0B7FBB04271EB0801F9DB2A9B15
:104FC0002B9AD3F810A0299B9FED5F7B2AFA02FA57
:104FD00009FA03F3289A9BB28DED267B2CA8138344
:104FE00061F0C4FF32212CA806F0BAFCDDE92623CB
:104FF000901B63EB080109920893FBF7DDFD09EEB6
:10500000900AF5EE007A0AF0010ADDE9083269EE4D
:10501000A79ABAF1000F40F0FC82964278EB0303A6
:1050200080F2F382249B079A33F812003BF0BAF91E
:10503000013F39EE089A78EEA98A7FF426AFB0EEE8
:10504000087AC9EE079ADFED477ADFED476A6AEE24
:10505000277AB0EE4A8A88EE87AAB1EE697A87EE9F
:10506000271AB4EEE61AF1EE10FA00F1E082DFED55
:105070003F7AB4EEE71AF1EE10FA00F3D8823C4B17
:105080001293F0EE481AF0EE4A0AB0EE690AB7EE53
:10509000002A12A85BF0D6FE4FF0FF33F3EE067A3B
:1050A000012C2B6030EE677ADFED326A324BB7EEBF
:1050B000006A0CBF1D2110212A46F3EC015AC7EEED
:1050C000257A76EE677AF0EEE77AF4EEE76AF1EEAB
:1050D00010FAC8BF2F6007F10107C8BFF0EE676A7A
:1050E0008F42EAD11368244ADFED248A9FED242AF7
:1050F00002EB830393ED009A1D4B1693F3EE061A11
:1051000079EE211AB0EE681AF0EE4A0AB0EE690A9A
:1051100016A85BF097FEDFED1B7AB4EEE70AF1EE1E
:1051200010FA05F10405B0EE408A40F16B82B4EE4E
:10513000680AF1EE10FA48BFB0EE688AABEC019A4B
:105140002CBB012495E600BF000000000000000019
:105150005200530000000000FF031F00DDB50508EA
:10516000E0600808187231BF0000964300606A468C
:10517000AC65080800247449306508086666663F17
:105180000AD7233CCDCC8C3F944838F0B7FEBDF80D
:105190002C003BF007F9BDF82C40204637F01EFEEE
:1051A000A11E012501F00F0105FA01F1002203F013
:1051B00075FEBDF82E003BF0F5F8BDF82E402046F8
:1051C00037F00CFEA11E01F00F0105FA01F10022DB
:1051D00003F064FE0CA83CF037FDDDED0F8ADDED39
:1051E0000E7AF5EE408AF1EE10FAB0EE408A00F049
:1051F0008482F5EE407AF1EE10FA00F07E82DDE96D
:105200001036642202FB036617EE900AFBF75CFB84
:10521000DFED737A68EE277A044617EE900A0D46A2
:10522000FBF752FBCDE9020118EE900AFBF74CFBAD
:105230002246CDE900012B466A486B4C314638F0D6
:105240005DFE6A4BA3F8106E94F85C36002B00F0FC
:105250006282674C6748DFF87882674F06F0E4FBAC
:10526000664BC4F83C33664BC4F8383304F53B75E1
:1052700004F54C73022604F54070C4F81033C4F8EA
:105280004083C4F83053C4F8347384F8146306F0D0
:105290005DFC04F5407006F0C7FB5A4BC4F8703350
:1052A000594BC4F86C3304F5407004F55973C4F8D5
:1052B0004433C4F87483C4F8687384F84863C4F84A
:1052C000645306F043FC94F8AC32002B00F01882D3
:1052D0004E4A4F4800215CF011FD4E4B4E4A4F495B
:1052E0004F481A603AF034FF58F0A2FF4D494E483B
:1052F0003AF02EFF4D494E483AF02EFF4D494E48A8
:105300003AF026FF4D494E483AF022FF4D494E48AB
:105310003AF01EFF4D494E483AF01AFF4D494E48AB
:105320003AF016FF4D4B1C78013CE4B2072C40F2DA
:105330005A814B494B4838F0E1FD4B4BDFF89491D3
:105340004A4E184640F6C472002167F084FD0124DD
:1053500080F8B54280F8254380F8C34250F0A8FA9F
:1053600056F03EFD48220021414867F074FD414956
:1053700041483AF0EDFE414941483AF0E9FE4149E1
:1053800041483AF0E9FE414941483AF0F5FE4149C9
:1053900041483AF0F1FE414941483AF0EDFE4149B9
:1053A00041483AF0E9FE414941483AF0E5FEFDF74F
:1053B00033FB40480025056137F094FB3E4805610A
:1053C00037F090FB3D483E4D38F098FD3D4B1C704A
:1053D0003D4B3E4CA3F53768F2E000BFE86008089B
:1053E00000007A44F8610808984C00200040001042
:1053F000482F0020483200201C180020B4650808FF
:10540000883E0120907B070850110120B900040854
:1054100044620808181A0120E9170408E1E10508A8
:105420004C620808DD2F030868DC0708F9B405089A
:105430005062080831E20508586208085DB805089E
:105440006062080819BB0508A86E07089DB2050828
:105450006C620808B5F805087862080852B30120A4
:10546000C41307088462080854B9002024180020D7
:1054700044A50020C1B70308B0620808FD4F030827
:10548000B862080835B80308C4620808A9E0030830
:10549000D4620808B5E00308E4620808C1E0030824
:1054A000F4620808CDE0030804630808D9E00308A3
:1054B00014630808A04001208840012024630808E4
:1054C0004828002032B30120702B0010281800203B
:1054D000847B0708E010012016A85DF075FD9DF89B
:1054E00059209DF85A30914F179802F00F01013959
:1054F00003F01F0337F811B01D93013B5B444FEAE3
:10550000521BC2F300124FF4616A22920BF1FF3278
:10551000C0F31A0C4FF03C0E9DF8580020924FF447
:105520007A72BCFBF2F2B2FBFAFC0AFB1C22CDF849
:1055300070C0B2FBFEFC0EFB1C22CDE91A2C00F160
:1055400050021F9200F2BC7280071E9142D14FF0B0
:10555000640C92FBFCF00CFB102000283AD00129CF
:10556000C8BF01330698219365F04AF8704BC3F821
:105570006403D9F800300BB139F06AFD6D4AD8F8F0
:10558000403B52F8082C13EB020A38F0FDF923686F
:105590009A4502D1336898420FD02B683060C4F826
:1055A00000A013B1002056F0C5FA2B6E13B10120F4
:1055B00056F0C0FA60483AF0B3FDC82005F02EF965
:1055C000059B1B78002B87D05C485D4A5D4938F00D
:1055D00095FCF2E74FF4C87092FBF0FC00FB1C2234
:1055E000002ABFD1BBE7584B584853F8241038F075
:1055F00085FC012C3FF6A1AE554940F25E2049F0F2
:105600000DFE9AE6B0EE678A98E5524838F076FCCF
:10561000BDE518EE100AFBF757F902460B464E4857
:1056200038F06CFCB3E54D4838F068FCAFE511EE9E
:10563000100AFBF749F902460B46494838F05EFC70
:10564000A5E548481AAF3CF0F1FA069738F06AF839
:10565000454B1A9349F64043C3181B9541F1000589
:1056600097E8030002AE86E80300CDE90035304B31
:105670003E4A3F4903F561604BF020F90C2005F0EC
:10568000CDF83C4B1B78002B7FF4EBAA3A4941F64E
:10569000332049F0C3FDFFF7E4BA384941F615203D
:1056A00049F0BCFD364B05931AAB0693FFF717BBC9
:1056B0003448311D38F022FCFFF747BA35F0FAFEC6
:1056C000FFF7EDB9304803F013FDD6E978320092C8
:1056D000D6F8DC212D4940F25E2049F09FFDFFF70E
:1056E0000CBA0123D5F8A81285F8AC32284617F079
:1056F000E7FFC5F8B002FFF7BDBA4FF0FF3683E50C
:105700000123D4F8A81284F8AC32204617F0D8FF51
:10571000C4F8B002DCE50123D4F8581684F85C36EE
:10572000204630F0B9F9C4F8600692E5A867080889
:1057300000000010702B0010B84001203C630808E6
:10574000CCA400201C600808886708088462080848
:10575000A062080878610808446108080861080820
:10576000BC61080820370020B5C5030814190120C2
:105770003460080836B3012040600808E05F08087C
:1057800025B30120E05D08081CDC0608DC5E080883
:105790000D480E4AC3680E499FED097B10B40024E2
:1057A00043611C700830046280F82440094B5DF8A6
:1057B000044B80ED0A7B38F06DBB00BFAFF3008077
:1057C000000000000000000038370020507008087A
:1057D0003C36070840CD0708F0B5214C04F580574A
:1057E000D4F8983EBE6AA4F89C0E013383B00546F7
:1057F000C4F8983EAEB1002304F56B6401E0B342F7
:105800000FD01A010133A15AA942F8D1154C144402
:1058100020463CF00BFA144803B0BDE8F0403CF0E1
:1058200005BA04F041F8BB6A104A0190172B0FD853
:1058300002EB031202F59D449FED077B25860133A1
:1058400084ED0A7B0198BB62283404F071FFDFE726
:10585000019804F06DFFDEE700000000000000F09A
:1058600000400010A84E0010A04E001000000010D4
:1058700010B59FED136BDFED147A144CC0ED147A64
:1058800000234FF0010C836280ED126BC362C0E90C
:105890000833C0E90A33C0E90C33C0E90E33C0E96C
:1058A0001033C0E9033300F10C0E03604371436110
:1058B000C36180F854C0836180F804C0846010BD67
:1058C00000000000000000000000C07F50730808C6
:1058D0009FED0B7B4FF0000C0022C0F8A4100A498A
:1058E000426080ED0E7B80ED347BC0F808C0C26062
:1058F000C0F810C0C0F824C0016002853CF0E2BCD2
:1059000000000000000000F06C77080800000000B4
:105910009FED117B034610B483ED0C7B9FED107B54
:1059200083ED047B9FED107B00200022104C586219
:10593000197101201C6083F8280083ED067B5DF857
:10594000044B1A721A731A62DA621A8703F13C0066
:1059500060F062BEAFF3008000000000000000F0C5
:1059600080841E0000000000000000000000000015
:10597000E8770808000000002DE9F04FCC4BCD4C33
:10598000CD49CE482DED068BC3F82C44CC4C1C6081
:105990000022CC4CC3F83444C3E90122CA4C83F83A
:1059A0003024CA4B0B60C1F86446C94BC94C1A700D
:1059B0008125C1F858566360E360C74DC74B81F835
:1059C0005C260026C64925604FF07047C0E9006795
:1059D000C44D0D606420C1E90620086203F128016E
:1059E00003F14000C3E902111960586003F120017E
:1059F00003F11800C3E90600C3E90811BA48BB491E
:105A00001A6100F128051A754FF47A7C0B4605607F
:105A1000B74FC560C4F808C000F11804C0E90644D7
:105A200000F1400600F1200443F8247BC0E908445B
:105A3000C1E9022285604660026102750A7185B083
:105A4000A431FF2043F8102C03F80C2C23F80A2C67
:105A500003F8082C03F8070C03F8062C10338B42CC
:105A6000F0D1A449A44BA54CC3F89C4001F13400EB
:105A70001425C3F894505861002444F620604FF078
:105A80007045C3E92A451960C3E902229C491A718D
:105A9000C3E90622C3E92322C3F89800994B9A4C24
:105AA0009A480860862581F83C23C1F84823C1F84C
:105AB0003853C3F83853C1F8444301259449C3F817
:105AC00048531860934D83F83C238720C1F8A803FE
:105AD0000520C3F84443C1E9ED508F4B81F8AC2356
